:04000000FEEFFFF020
:102600000000000E096E000E086E09EF13F0084A74
:10261000092AE80E036E030E046E03500102F3C490
:1026200005F5F4C406F50202F35006260450010233
:10263000F35006260850055C0650800A076E0950C4
:10264000800A0758D8B027EF13F029EF13F007EFEF
:1026500013F01200CB6AC36AC36A030E026EE80E5F
:10266000016E01EC13F0080EC36E030E026EE80E4D
:10267000016E01EC13F02CEF13F0FEEFFFF0000100
:042680002AEF13F03A
:020000040001F9
:04FFFC003FEF13F0D0
:00000001FF
