:0400000081EF00F09C
:100008008E098E098E098E0940008E0940008E09DE
:100018008E098E098E098E098E098E098E098E0920
:100028008E094000400040008E098E098E098E0915
:100038008E098E098E098E098E098E098E098E0900
:100048008E098E098E098E09400040008E098E099E
:100058008E098E098E0940008E098E098E098E0937
:100068008E098E098E098E098E098E098E098E09D0
:100078008E098E098E098E0940008E098E098E0917
:100088008E098E098E098E098E098E098E098E09B0
:100098008E098E098E098E0940008E0940004000A5
:1000A8008E098E098E098E098E098E098E098E0990
:1000B8008E098E098E098E098E098E098E098E0980
:1000C8008E098E098E098E098E098E098E098E0970
:1000D8008E098E098E098E098E098E098E098E0960
:1000E80040008E098E098E09400040004000400003
:0E00F8008E098E098E098E09FF004AEF13F063
:102600000000C3B606EF13F009EF13F0010E0AEF56
:1026100013F0000EFF0A016E014601460146C35049
:102620000118F70B0118C36E850E0301196FEE0E2A
:06263000186FB19E1200BC
:10263800A1AE21EF13F023EF13F02CEF13F0B1AE9E
:1026480028EF13F02AEF13F02CEF13F001EC13F03E
:10265800110054EC13F05AEC13F0CB9604012897B0
:10266800C3963DEC13F05EEC13F039EF13F081EFF5
:1026780000F0100E03011A6F590E1B6F850E196FAB
:10268800EE0E186FB19EA18E658F12000401080E20
:102698005D6F000E5E6F000E5F6F00012DEF13F08F
:1026A800600E0001AD6F080EB16F1200D68ED68C89
:0A26B800D68A120003011A8F1200E7
:00000001FF
