:040000000DEF00F010
:0400080016EF14F0EB
:06001800FF0061EF14F08F
:102600000000B29E68A007EF13F009EF13F02AEF65
:1026100013F067A00EEF13F010EF13F02AEF13F092
:102620006790135014101510D8B419EF13F01BEF66
:1026300013F050EF13F002D828EF13F00500FA6EF4
:102640001350FD6E1450FE6E1550FF6EFA501200BE
:1026500050EF13F068A22FEF13F031EF13F050EFAB
:1026600013F067A236EF13F038EF13F050EF13F0CA
:102670006792105011101210D8B441EF13F043EFCD
:1026800013F050EF13F002D850EF13F00500FA6E7C
:102690001050FD6E1150FE6E1250FF6EFA50120077
:1026A000120021C518F522C519F518C516F519C56A
:1026B00017F507EC15F00EEC15F022BE68EF13F0DD
:1026C000225008E12104D8A068EF13F06AEF13F05C
:1026D00083EF13F023502410D8A471EF13F073EF9D
:1026E00013F083EF13F0214A222A500E21182210F2
:1026F000D8A47DEF13F07FEF13F083EF13F0000EFB
:10270000246E010E236E23042410D8A48AEF13F044
:102710008CEF13F09CEF13F02106D8A022062104C1
:102720002210D8A496EF13F098EF13F09CEF13F05B
:10273000000E246E000E236E1200BE6ABF6AC06ACD
:10274000C16AC26AC36A0401026B0A6B126B1A6B1C
:10275000226B2A6BC668C768C868C9680F0ECA6E44
:10276000F70ECB6E0069086910691869070E206FB3
:10277000F70E286F016B096B116B196B216B296BBD
:1027800003690B6913691B69070E236F2B690469C1
:102790000C6914691C690F0E246F2C690201896B86
:1027A000886B876B866B180E2C6F0401056B066BAC
:1027B000076B0D6B0E6B0F6B156B166B176B256B29
:1027C000266B276B1200606A020E616E626A636894
:1027D000F90E646E656A666A676A686A6A6A6B6A35
:1027E0007D0E6C6E6D6A7D0E6E6EB29CB29E6790B1
:1027F0006792A28EA29C240E1C6E2A0E1D6E000EE5
:102800001E6EDFEC14F0220E1C6E2A0E1D6E000EE2
:102810001E6ED8EC14F0000E1C6E000E1D6E000E25
:102820001E6EE6EC14F0800E696E1200FAC41AF502
:10283000FBC41BF5A2AE1FEF14F021EF14F02CEF38
:1028400014F0B2AE26EF14F028EF14F02CEF14F0D1
:1028500001EC13F03CEF14F0A1AE31EF14F033EFC4
:1028600014F03CEF14F0B1AE38EF14F03AEF14F07E
:102870003CEF14F07DEC14F01BC5FBF41AC5FAF420
:102880001100D69AAF90D680000E1C6E000E1D6E01
:10289000000E1E6EFBEC14F0B490D682000E1C6E7F
:1028A000000E1D6E000E1E6EF4EC14F0B890D6846F
:1028B000000E1C6E000E1D6E000E1E6EEDEC14F070
:1028C0001200180EF66E2A0EF76E000EF86E01EE6C
:1028D0001FF110EE04F00900F5C4EEF4E550E150EC
:1028E000FAE1246A236A0401080E5D6F000E5E6F30
:1028F000000E5F6F000196EF14F0015002100310FC
:10290000D8B485EF14F087EF14F094EF14F002D8E8
:1029100094EF14F00500FA6E0150FD6E0250FE6E49
:102920000350FF6EFA501200B19E1200BCEC14F07E
:10293000000E1D6E460E1C6E02EC15F0A20E1C6EF3
:10294000260E1D6E000E1E6ED1EC14F0D68EA7EF73
:1029500014F00DEF00F09B0E0301196F186B7D0E44
:102960001B6F200E016E2A0E026E000E036EB19ECA
:10297000A18E800E1A6F1200C7EC14F09DEC13F0BC
:10298000ABEC14F0E3EC13F041EC14F01200600E29
:102990000001AD6FAF6BB36B080EB16FB06BAC6B7A
:1029A00012001CC501F51DC502F51EC503F5120078
:1029B0001CC510F51DC511F51EC512F512001CC56C
:1029C00013F51DC514F51EC515F512001CC50DF532
:1029D0001DC50EF51EC50FF512001CC504F51DC55D
:1029E00005F51EC506F512001CC507F51DC508F541
:1029F0001EC509F512001CC50AF51DC50BF51EC53F
:102A00000CF512001CC563F41D50646E120016C54F
:102A10006BF417506C6E12004600010069841200BE
:062A20001200120012007A
:020000040030CA
:080000008FFFF7FF9FFFFFFFD8
:01000900FFF7
:00000001FF
